:020000040000FA
:10000000A8500010D1020000D5020000D702000065
:10001000D9020000DB020000DD0200000000000049
:10002000000000000000000000000000DF020000EF
:10003000E102000000000000E3020000E502000011
:10004000E7020000E7020000E7020000E70200000C
:10005000E7020000E7020000E7020000E7020000FC
:10006000E7020000E7020000E7020000E7020000EC
:10007000E7020000E7020000E7020000E7020000DC
:10008000E7020000E7020000E7020000E7020000CC
:10009000E7020000EF040000E7020000E7020000B2
:1000A000E7020000E7020000E7020000E7020000AC
:1000B0004D090000E7020000E7020000E70200002F
:1000C000E7020000E7020000E7020000DFF80CD0C2
:1000D00001F046FC004800474D040000A850001005
:1000E00000BF70472DE9F04F00258046012087B002
:1000F00089461446A0EB4207AA462E463EE000BFC2
:1001000005EB0900069004EB08000590069901F044
:1001100063F904EB0900049005EB080003900499CF
:1001200001F05AF9A8EB040B5846069901F054F96E
:10013000A8EB05000290049901F04EF9A9EB050027
:1001400001460190584601F047F9A9EB040B5946C6
:10015000029801F041F90199059801F03DF95946DD
:10016000039801F039F956446D1C07EB46000AF17B
:10017000020A002802DD641E3E44BF1CAC42BFDA06
:1001800007B0BDE8F08F2DE9F74F84B00746069819
:10019000002500EBD0708246441020F00100C0F131
:1001A00001088B46A9462E464FF4784001F039F9F4
:1001B00059463846069AFFF795FF0698C11700EB97
:1001C0005170C2100390ABEB6A00029007EB6A001B
:1001D0000299FFF787FF03980299C210A7EB6A0004
:1001E000FFF780FF28E006984100032091FBF0F024
:1001F0008246ABEB050108440190381B019901F0E0
:10020000EBF8ABEB04018A44781B514601F0E4F8AB
:10021000E019019901F0E0F8E819514601F0DCF825
:100220004E446D1C08EB460009F10209002803DD6D
:100230004644641E08F10208AC42D4DA07B0BDE8B7
:10024000F04F4FF6FF7001F0ECB808B50078412888
:100250000BD045280BD053280BD0552811D12D2277
:100260007821BDE80840A0208DE7064B02E0064B50
:1002700000E0064B0093A02378222821502001F0B3
:1002800096FA08BD5036000050CC000050620100C4
:10029000FEE710B501F024FF01F068FF01F05AFFFE
:1002A00001F042FFAFF3008010BD10B502F0A4FCD6
:1002B000BDE8104002F01ABE02F008BC02F0F4B92A
:1002C00009B901F053BE00207047002070470000BC
:1002D00005480047FEE7FEE7FEE7FEE7FEE7FEE72C
:1002E000FEE7FEE7FEE7FEE7CD000000084400EB76
:1002F000104080B27047704770477047FFFFFFFFA4
:10030000002100E0491C8142FCD3704796490A6CE9
:1003100022F480620A649548016841F480610160BA
:100320004FF400114FF0E020C0F8001170477CB589
:100330008FA10CC90021CDE900238B4B6C46012510
:10034000665C05FA06F205FA01F6064205D00329B5
:1003500001D29A6306E09A6504E0032901D2DA63C8
:1003600000E0DA65491C0829EAD37CBD017801293F
:1003700001D14078DBE770477F490A2804D10A7D24
:100380009206FCD50D220A700A7D9206FCD50870F3
:10039000704710B579491C46897888420AD10020F7
:1003A00001F045F82046FFF750FF224603210920BF
:1003B00001F0E9F8002010BD10B5704C03466478D8
:1003C0001046A34206D139B1012905D0052901D132
:1003D000FFF7CCFF002010BD012010BDF8B5674D20
:1003E0000446A87840F2E93658B1022003F044F8F8
:1003F00004700223009303463246E91CA87803F0F8
:10040000A5F86878002820D002F002FD98B10228F3
:1004100011D00A2819D1687802F05AFC012814D1A9
:10042000022002F0C1FC047001466878BDE8F84083
:10043000022202F089BE6878324601B0BDE8F04081
:100440004E490023C91C02F05FBCF8BD2DE9F04104
:1004500000F0E6FA00F055F94348016A41F03041F6
:100460000162016C41F07C01016445480A21006889
:100470004FF0E026B0FBF1F0401E706105203061C6
:1004800000F047F801F0FCFDFFF740FF4FF000508F
:10049000FFF736FF002000F0CAFF3AA20021032038
:1004A00001F071F8AFF215120321002002F0ECFF09
:1004B000324CA070C0B218B140F2E93103F008F834
:1004C0000127277000253069C00302D502F0CEFF56
:1004D000A76001F079FFA0680128F4D1E068012845
:1004E00003D12078FFF77AFFE560A560EBE700B560
:1004F0004FF48000FFF704FF2748016841F4806152
:1005000001601E484FF0610101704FF00101C160B0
:1005100000BD10B500F039FB002000F088FF00207E
:1005200000F082FF4FF6FF7000F07BFF1BA201215D
:10053000032001F028F81EA20521042001F023F871
:100540001DA20221052001F01EF84FF08060FFF788
:10055000D7FE002000F06BFF0021BDE810401BA279
:10056000032001F010B8000000C00920B480024050
:100570001C1D1F02030405060000014000000010BE
:1005800030000010496E697469616C697A61746940
:100590006F6E20446F6E6500AC8002404F626A65EA
:1005A0006374205265636F676E6974696F6E0000D3
:1005B00053797374656D0000456D626564646564AC
:1005C000205465726D696E616C000000537973741C
:1005D000656D20496E697469616C697A696E67003E
:1005E00010B5C1F12002FB4B90404FF400745A1536
:1005F00008E0002801DA9C6500E0DC659A65DA65B0
:100600004000491E0029F4D110BD70B50446F248DF
:100610000078012829D1EF4D286C40F4007028643F
:1006200020214FF0FF30FFF7DBFF04210620FFF70A
:10063000D7FF05210120FFF7D3FF05212046FFF753
:10064000CFFF00F0E1F90024204669154FEA440489
:10065000A965E9656A6D920501D544F00104401C65
:100660001028F3D300F0D0F911E044F480704FF07B
:10067000A04188620120486200200B134A6BD20718
:1006800002D0401C9842F9D3002048620C6BA0B203
:1006900070BD70B50546D0480C460078012821D1C0
:1006A000CC48016C41F40071016420214FF0FF300F
:1006B000FFF796FF04210520FFF792FF0521012097
:1006C000FFF78EFF05212846FFF78AFF0221084623
:1006D000FFF786FF10212046FFF782FFBDE870403C
:1006E00000F092B945F480704FF0A0418862CC626E
:1006F00000200B134A6BD20702D0401C9842F9D35A
:1007000070BD2DE9FC470024B34D36202C700090BD
:100710006A6869466846904701982521B1EB106FD9
:1007200001D101202870AD480268AD4942F08042F5
:100730000260AC488160297829B9C16821F00F01B5
:10074000491DC16008E00269A24922F470220261D9
:10075000086C40F4807008644FF44F404FF0A0459F
:1007600028607820C5F800016420401EFDD14FF0BC
:100770000209C5F80090302068604001686143F2CA
:100780000F7028614FF01208C5F80C804FF41070FC
:10079000C5F800014FF40060A8616426761EFDD103
:1007A000AC614FF400410020FFF773FF4FF4801756
:1007B0000020FFF72AFF10F4084F02D0761CBE423B
:1007C000F6D30220FFF721FF06460320FFF71DFFA7
:1007D0004FF6F0710840844940EA064088420DD146
:1007E0004FF440510020FFF754FF00260120FFF78F
:1007F0000CFF800602D4761CBE42F7D300264FF4CD
:1008000080371020FFF701FFC10702D1761CBE42DE
:10081000F7D341070BD5696841F001016960D5F84C
:100820000021152142F48062C5F8002100E0414614
:10083000A960800701D5AC6102E04FF48070A86127
:100840006A4881882964418869640088A864684B83
:10085000684FA3F16402002002F1200100EB400682
:1008600003EB462642F8306002EBC006776041F8A1
:10087000304001EBC006401C74600428EED3C5F87C
:100880000821C5F80C110320C5F81001C5F818415E
:1008900057490020584E243901F1180300EB40025B
:1008A00006EB422241F8302001EBC002546043F8CD
:1008B0002040401C0328F1D305F1AC0529676B6784
:1008C000C5F87890EC674FF02600C5F854014FF05A
:1008D0008800C5F8380F4FF6FF70C5F83C0F686DFB
:1008E00040F00300686555F8AC0D40F00100286049
:1008F000BDE8FC8741484FF0805101607047404897
:100900004FF0805101607047F0B54FF0A04CDCF81B
:100910002841374E0188243E021D56F83430C91C48
:10092000890805D020CA1F1D1D603B46491EF9D10C
:10093000008806EBC401401E40F04040641C486043
:10094000032C00D10024CCF82841F0BD2DE9F04162
:100950004FF0A04536E000BFC5F8E80F000731D5DD
:10096000D5F818412AE02248443850F834004100B4
:100970001ED5C0F30A06F61E40F2EA518E4217D881
:100980002049084214D146F0004001F02FF878B118
:100990001749021D643951F83430F61CB10805D0EE
:1009A00040CB171D16603A46491EF9D102F0F4F803
:1009B000641C042C00D10024C5F81841D5F814019A
:1009C000A042D0D1D5F8E00FD5F8E41F0840C3D13C
:1009D000BDE8F08100C0092028000010C4C00F400D
:1009E0000501155000C00240905C0020200000105E
:1009F000EC210010FF050080EC39001000E100E060
:100A000080E100E00000901B0448026C411522F4D4
:100A1000007202648165C1657047000000C0092052
:100A200030B547492020C1F8A00100BFD1F8A0018E
:100A30004006FBD5032501F18001C1F884504FF039
:100A40000002C1F82821C1F82C214FF00100C1F8A3
:100A50008C003C4B4B6008604FF0AA03CB604FF01A
:100A60005504CC60A1F18001D1F888004001FBD58C
:100A700041F8805FCB60CC60C1F888203248486480
:100A8000C1F848218868A1F180016FEA10608007F1
:100A90002E4AD1F80C0100F0030032D128B1012810
:100AA00010D002281FD0032843D151F8880FCB6FF4
:100AB000C0F30740401CDBB25B1C584351F8883937
:100AC000234C0BE051F8880FCB6FC0F30740401C5C
:100AD000DBB25B1C584351F888391E4CC3F30E033C
:100AE0005B1C634322E051F8880FCB6FC0F30740D3
:100AF000401CDBB25B1C584351F888394FF47A44F0
:100B0000ECE728B1012807D0022809D0032810D12A
:100B1000D1F80401104B07E0D1F804010F4B03E0BA
:100B2000D1F804014FF4FA43C0B2401CB3FBF0F01B
:100B30001060086820F4704040F48040086030BDC8
:100B400000C00F4063000500DE872804300000105D
:100B500000127A0000366E0100093D00001BB7004C
:100B6000401EFDD27047FF490A6C42F0FF020A6442
:100B70004FF400128A619210CA61486552008A617E
:100B8000CA61000A4865012070472DE9F05FF54809
:100B9000016841F07E7101604FF07E718161052036
:100BA00000F077FE002000F0B0FEEF4C4FF48075AF
:100BB000A08080B2A0F58A4141F2300640F20228BE
:100BC0004FF4837A4FF4E06B40F2023931397ED131
:100BD0000121002000F08CFE4FF4C561102000F0D0
:100BE00087FE0621122000F083FE40F632211320FA
:100BF00000F07EFE4021112000F07AFE50211520E9
:100C000000F076FE1621122000F072FE0F2000F098
:100C100040FE45F26061102000F06AFE0F2000F0F7
:100C200038FE42F64E21132000F062FE29460120D4
:100C300000F05EFE4FF44071022000F059FE314694
:100C4000032000F055FE4146082000F051FE00212F
:100C50000A2000F04DFE0021302000F049FE40F255
:100C60000241312000F044FE5146322000F040FEA7
:100C70005946332000F03CFE291D342000F038FE98
:100C800040F20131352000F033FE40F2077136208A
:100C900000F02EFE40F20531372000F029FE4FF41F
:100CA0000271382000F024FE40F60B71392000F06C
:100CB0001FFE0F2000F0EDFD0221412000F018FE84
:100CC0004FF41C51602000F013FE012100E01FE0F2
:100CD000612000F00DFE40F21911902000F008FE96
:100CE0004FF48571922000F003FE0421932000F060
:100CF000FFFD2946A02000F0FBFD0F2000F0C9FDFC
:100D00000021A02000F0F4FD142000F0C2FDF8E165
:100D1000A0F513414FF4887725397ED11021E720C3
:100D200000F0E6FD0121002000F0E2FD294601204F
:100D300000F0DEFD5946022000F0DAFD31460320C6
:100D400000F0D6FD0021042000F0D2FD40F2072182
:100D5000082000F0CDFD0021092000F0C9FD002190
:100D60000A2000F0C5FD01210C2000F0C1FD00218A
:100D70000D2000F0BDFD00210F2000F0B9FD002185
:100D8000102000F0B5FD0721112000F0B1FD002179
:100D9000122000F0ADFD0021132000F0A9FD0F206E
:100DA00000F077FD41F29051102000F0A1FD40F2DB
:100DB0002721112000F09CFD0F2000F06AFD9C21EE
:100DC000122000F095FD0F2000F063FD4FF4C85194
:100DD000132000F08DFD2321292000F089FD0E2134
:100DE0002B2000F085FD0F2000F053FD0021202076
:100DF00000F07EFD0021212000F07AFD0F2000F0A0
:100E000048FD0721302000F073FD40F207713120CA
:100E100000F06EFD0621322000E07EE000F068FD6B
:100E200040F20471352000F063FD41F60471362074
:100E300000F05EFD0421372000F05AFD002138202B
:100E400000F056FD40F20671392000F051FD40F2ED
:100E500001713C2000F04CFD0F213D2000F048FDC9
:100E60000F2000F016FD0021502000F041FDEF2181
:100E7000512000F03DFD0021522000F039FD40F2EC
:100E80003F11532000F034FD4FF42741602000F063
:100E90002FFD0121612000F02BFD00216A2000F0D0
:100EA00027FD0021802000F023FD0021812000F09B
:100EB0001FFD0021822000F01BFD0021832000F097
:100EC00017FD0021842000F013FD0021852000F093
:100ED0000FFD1021902000F00BFD0021922000F06A
:100EE00007FD0321932000F003FD3946952000F013
:100EF000FFFC0021972000F0FBFC0021982000F06F
:100F0000F7FC40F23311072000F0F2FC0021202012
:100F100000F0EEFC00212120F1E0A0F51341203982
:100F20007ED14FF40041E52000F0E2FC01210020D9
:100F300000F0DEFC2946012000F0DAFC59460220D0
:100F400000F0D6FC3146032000F0D2FC0021042042
:100F500000F0CEFC4146082000F0CAFC0021092028
:100F600004E0000000C009203400001000F0C0FCC4
:100F700000210A2000F0BCFC00210C2000F0B8FC8D
:100F800000210D2000F0B4FC00210F2000F0B0FC87
:100F90000021102000F0ACFC0021112000F0A8FC82
:100FA0000021122000F0A4FC0021132000F0A0FC7E
:100FB000142000F06EFC41F2B071102000F098FC9B
:100FC00040F23711112000F093FC052000F061FC85
:100FD00040F23911122000F08BFC052000F059FC82
:100FE0004FF4E851132000F083FC1321292000F076
:100FF0007FFC052000F04DFC0021202000F078FC53
:101000000021212000F074FC0621302000F070FC4B
:1010100040F20111312000F06BFC0321322000E08E
:101020006FE000F065FC5146352000F061FC40F6B1
:101030000231362000F05CFC4946372000F058FCB5
:1010400040F20771382000F053FC0721392000F0EE
:101050004FFC4FF4C0613C2000F04AFC40F20B21F1
:101060003D2000F045FC0021502000F041FCEF2124
:10107000512000F03DFC0021522000F039FC40F2EC
:101080003F11532000F034FC4FF41C51602000F05D
:101090002FFC0121612000F02BFC00216A2000F0D0
:1010A00027FC0021802000F023FC0021812000F09B
:1010B0001FFC0021822000F01BFC0021832000F097
:1010C00017FC0021842000F013FC0021852000F093
:1010D0000FFC1021902000F00BFC0021922000F06A
:1010E00007FC0321932000F003FC3946952000F013
:1010F000FFFB0021972000F0FBFB0021982000F06F
:10110000F7FB41F23801032000F0F2FB40F27311CB
:10111000072000F0EDFBA088A0F5094189397DD1B9
:101120000121002000F0E4FB052000F0B2FB4AF6AC
:10113000A401032000F0DCFB052000F0AAFB002145
:101140000C2000F0D5FB052000F0A3FB40F60C01BD
:101150000D2000F0CDFB052000F09BFB4FF42C513F
:101160000E2000F0C5FB052000F093FBB0211E20EF
:1011700000F0BEFB052000F08CFB42F63F31012061
:1011800000F0B6FB052000F084FB4FF4C0610220A4
:1011900000F0AEFB052000F07CFB0021102000F0E9
:1011A000A7FB052000F075FB46F27801112000F046
:1011B0009FFB052000F06DFB0021052000F098FB4F
:1011C000052000F066FB0021062000F091FB0520C1
:1011D00000F05FFB4EF61C71162000F089FB052025
:1011E00000F057FB0321172000F082FB052000F0E0
:1011F00050FB40F23321072000F07AFB052000F07D
:1012000048FB00210B2000F073FB052000F041FBA0
:1012100000210F2000F06CFB052000E0AFE000F0A3
:1012200038FB0021412000F063FB052000F031FB7A
:101230000021422000F05CFB052000F02AFB002189
:10124000482000F055FB052000F023FB40F23F143E
:101250002146492000F04CFB052000F01AFB00213C
:101260004A2000F045FB052000F013FB00214B2035
:1012700000F03EFB052000F00CFB4FF46F414420D2
:1012800000F036FB052000F004FB0021452000F0B3
:101290002FFB052000F0FDFA2146462000F028FB38
:1012A000052000F0F6FA40F20771302000F020FB34
:1012B000052000F0EEFA4FF401742146312000F0D1
:1012C00017FB052000F0E5FA2146322000F010FB64
:1012D000052000F0DEFA40F202552946332000F0E6
:1012E00007FB052000F0D5FA691D342000F000FB53
:1012F000052000F0CEFA2146352000F0F9FA05204D
:1013000000F0C7FA2146362000F0F2FA052000F07E
:10131000C0FA2946372000F0EBFA052000F0B9FAB0
:101320004C4649463A2000F0E3FA052000F0B1FAB5
:1013300021463B2000F0DCFA052000F0AAFA00214B
:10134000232000F0D5FA052000F0A3FA0021242084
:1013500000F0CEFA052000F09CFA4FF40041252061
:1013600000F0C6FA052000F094FA00214F2000F0AA
:10137000BFFABDE8F05F00214E2000F0B9BABDE829
:10138000F09F10B5F84840F23F148088A0F509415D
:1013900089394FF000010ED1442000F0A9FA4FF432
:1013A0006F41442000F0A4FA0021452000F0A0FA8B
:1013B000214646200CE0502000F09AFAEF215120FF
:1013C00000F096FA0021522000F092FA21465320B4
:1013D000BDE8104000F08CBA70B5E34DA0F23F10AC
:1013E000AA884042A2F5094389B284B2893B05D15B
:1013F0004E2000F07DFA21464F2004E0202000F02E
:1014000077FA2146212000F073FAD84C4FF4800679
:10141000E661222000F041FA288800F04EFAA66129
:1014200070BDD14908807047CF49488070472DE989
:10143000F0418046FFF7A5FFCB488088A0F5094121
:1014400089394FF0000105D14E2000F051FA0021FA
:101450004F2004E0202000F04BFA0021212000F072
:1014600047FAC24E4FF48005F561222000F015FACC
:101470006800B06100244FF49637404600F02DFA22
:10148000641CBC42F9D3B561BDE8F0812DE9F05F81
:10149000DFF8D492C0F598760F46B9F80400BCB2D4
:1014A000A0F50941893915464FF0000821461CD1A5
:1014B000442000F01DFA4FF4B85000EB07203843E9
:1014C00081B2442000F014FAB1B20F46452000F07A
:1014D0000FFA0F36B1B2462000F00AFA21464E202C
:1014E00000F006FA39464F2017E0502000F000FACD
:1014F0001737B9B2512000F0FBF9B1B20F465220B4
:1015000000F0F6F90F36B1B2532000F0F1F92146A0
:10151000202000F0EDF93946212000F0E9F9DFF84C
:101520004CA24FF4800B5446CAF81CB0222000F0A5
:10153000B4F94FF40000A06100264F460F244FF08D
:10154000010900BF35F8180009FA04F1084201D179
:10155000788800E0388800F0C0F9641EF2D5AD1C30
:10156000761C182EEADBCAF818B008E70B46203ABA
:10157000D1B27F4A01EB410102EB011200EB4000C6
:10158000C100180182E770B506460C461546FFF704
:10159000F8FE05E021466D1C641C3046FFF7E6FFAF
:1015A0002A78002AF6D170BD10B50446FFF7E9FE8F
:1015B0002046BDE810406FA20021E4E72DE9F05F6E
:1015C000C0F5A070DFF8A081841A0F46B8F80400B7
:1015D00048F6891ABDB2DDF828B01646994650453E
:1015E000294614D1442000F083F94FF4B85000EBA1
:1015F0000720384381B2442000F07AF9A1B2452097
:1016000000F076F9A019401E81B246200FE050206C
:1016100000F06EF91737B9B2512000F069F9A1B2A4
:10162000522000F065F9A019401E81B2532000F04D
:101630005FF90BFB06F047464FEA9028B888294629
:10164000504505D14E2000F053F9A1B24F2004E0DF
:10165000202000F04DF9A1B2212000F049F9DFF877
:101660000CA14FF4800B5446CAF81CB0222000F0A5
:1016700014F94FF40000A06100250BE0344606E0A9
:10168000444501D3788800E0388800F026F9641ECC
:10169000F6D56D1C4D45F1D3CAF818B06FE62DE9AB
:1016A000F047C0F5A070871A89462F4816468188F2
:1016B0001FFA89F4A1F50942089D9A4609EB03082F
:1016C000893A21461ED1442000F012F96FF0FF0143
:1016D00001EB082040EA090081B2442000F008F93B
:1016E000B9B28846452000F003F9B819401E81B20E
:1016F000462000F0FDF821464E2000F0F9F8414662
:101700004F2019E0502000F0F3F8A8F1010081B259
:10171000512000F0EDF8B9B28846522000F0E8F808
:10172000B819401E81B2532000F0E2F82146202073
:1017300000F0DEF84146212000F0DAF8DFF82C80D6
:101740004FF480094446C8F81C90222000F0A5F808
:101750004FF40000A061002723E000BF05EB460422
:10176000A41E002517E000003400001000C009206E
:10177000AAF8010020202020202020202020202046
:1017800020202020202020200000000034F8020922
:1017900000F0A3F86D1CB542F8D304EB4605AD1C70
:1017A0007F1C5745DAD3C8F81890BDE8F0872DE9BB
:1017B000F05FC0F5A070851A67480F468088BCB2FC
:1017C000A0F50941DDF828A089391646984607EBAF
:1017D000030921461DD1442000F08AF86FF0FF0173
:1017E00001EB0920384381B2442000F081F8A9B20E
:1017F0000F46452000F07CF8A819401E81B2462013
:1018000000F076F821464E2000F072F839464F205D
:1018100019E0502000F06CF8A9F1010081B25120CC
:1018200000F066F8A9B20F46522000F061F8A8193E
:10183000401E81B2532000F05BF82146202000F0CA
:1018400057F83946212000F053F8DFF810914FF493
:10185000800B4C46C9F81CB0222000F01EF84FF453
:101860000000A06108FB06F00AEB4005AD1E002752
:101870000AE0002405E000BF35F8020900F02DF869
:10188000641CB442F8D37F1C4745F2D3C9F818B0A2
:1018900075E58004401EFDD2704770B52F4C4FF4A3
:1018A0000001E1618900A161FFF75DF94FF08075EA
:1018B000E561FEF715FCA56170BD70B5274C4FF4CE
:1018C0000001A1618900A161FFF74DF94FF080751A
:1018D000E561FEF705FCA56170BD70B5FFF743F942
:1018E0001E4D4FF08074EC61FEF7FAFBAC6170BDE9
:1018F00070B51A4D4FF480040E46EC61FFF7CDFF32
:101900003046FFF7DAFFAC6170BD70B5134D4FF490
:101910008004EC61C0B2FFF7C0FF6000A861400026
:10192000A8614100E961286C20F0FF0028640A11D9
:10193000EA618B11EB615020401EFDD2686DAB61F6
:10194000C6B25020401EFDD2686DAA6166F31F200A
:1019500080B2A961AC6170BD3400001000C00920E4
:10196000064C074D06E0E06840F0010394E80700EC
:1019700098471034AC42F6D3FEF7ACFBBC0D020026
:10198000DC0D020000B5002200F008F8C04380B270
:10199000010241EA102080B200BD000005E000BF56
:1019A00030F8023B891E5BBA1A440129F8DC11B1F8
:1019B000007802EB002290B200EB124000EB1040E6
:1019C00080B27047010241EA102080B2704702E005
:1019D00008C8121F08C1002AFAD17047002001E090
:1019E00001C1121F002AFBD1704700002DE9F04110
:1019F0000026DFF8888000280CDA2149D8F800207A
:101A0000096820F00040024401EB4101B2EB910F64
:101A100018D8012607460F3020F00305194CFEF7B1
:101A20006EFF00BFD4E90002011B891AA9420CD243
:101A3000044600680028F5D1FEF75CFF16B90020C7
:101A4000FEF726FC0020BDE8F081100002D16560A1
:101A5000083407E0204422680260206000F1080199
:101A60000C464560D8F800102944C8F80010FEF76D
:101A700041FF2780002060802046E4E74C000010F2
:101A800090F80100600000102DE9F04707468946F4
:101A900090460025284C294E0BE0207838B10422CE
:101AA000394604F10A0000F0ADFC012834D00E34B0
:101AB0006D1C30888542F0DB2149384600F05CFC23
:101AC000B8B91F4804220021001D00F0C3FCA0B9D2
:101AD0000025194C0AE0207830B106224946201D25
:101AE00000F090FC01281CD00E346D1C308885421B
:101AF000F1DB404600F02AF810B90020BDE8F0877D
:101B00000D49C0EBC00001EB4000A0F10E0404221F
:101B10003946001F00F086FC06224946201D00F0D1
:101B200081FC08480088E07007480078A070032016
:101B300020700120E2E700006020001096F801000C
:101B40006C4C001098F801009AF80100F0B50446BA
:101B5000012015490546154B06E00A7812B90D70AB
:101B60004C70F0BD0E31401C1A889042F5DD1048D3
:101B70000D4A07880020012109E05678012E04D182
:101B8000D678BE4201D8374608460E32491C1E8818
:101B9000B142F2DD0028E4D0034AC0EBC00102EB01
:101BA00041010E39DBE700006020001096F80100CB
:101BB00098F801002DE9F04781460F4600263C4C7D
:101BC0003C4D11E0207868B10422494604F10A0036
:101BD00000F018FC012805D12078032849D32046BD
:101BE000BDE8F0870E34761C28888642EADB32494D
:101BF000484600F0C1FBDFF8B8802F4E01284FF0B7
:101C000004021AD14946301D00F0FCFB012806D120
:101C100004220021301D00F01DFC00B900273846C9
:101C2000FFF794FF050024D0C5EBC50108EB410088
:101C3000A0F10E040422494625E00021301D00F0E9
:101C400009FCB0B900271A4C0BE0207838B1042207
:101C5000311D04F10A0000F0D5FB0128BCD00E3480
:101C60007F1C28888742F0DB0020FFF76FFF05000C
:101C700001D10020B4E7C5EBC50108EB4100042207
:101C8000A0F10E04311D04F10A0000F0CBFB062286
:101C90000A49201D00F0C6FB09480078A0700948D9
:101CA0000078E070681E00F00DF902202070E0E777
:101CB0006020001096F801006C4C0010B20D02007C
:101CC0009AF801009BF801002DE9F0470025DFF8A4
:101CD000D490DFF8D4A02F46DFF8D08052E0BAF8D5
:101CE00000605146701C80B2AAF800001288904231
:101CF00000D30F802E49C6EBC60001EB40042078CC
:101D000000283ED0E07820B1401E10F0FF00E070C7
:101D100037D16078012818D10422264904F10A003D
:101D200000F070FB012801D1677010E06078012895
:101D30000BD12078032823D0A07808B3401E10F0E0
:101D4000FF00A0701CD0022011E06078C8B9042206
:101D5000194904F10A0000F055FB012803D1174886
:101D60000088E0700DE02078032802D10420207064
:101D70000FE0A07820B1401E10F0FF00A07008D145
:101D800027706D1CB8F8000042468542A7DBBDE80D
:101D9000F08799F80000E0703046BDE8F04700F0A9
:101DA00091B800009BF801005800001096F801005F
:101DB00060200010704C0010B80D020098F801006F
:101DC0002DE9F04106460025134C00F10E08134F93
:101DD0001DE02078C8B1012817D0042204F10A01BF
:101DE000404600F00FFB01280FD1062206F1080142
:101DF000201D00F017FB0A480088E07009480078B1
:101E0000A07003202070BDE8F0810E346D1C38886E
:101E10008542DEDBF7E700006020001096F8010045
:101E200098F801009AF801002DE9F04105460E46A8
:101E30002A20FFF7DBFD044605F1080106220F46C4
:101E4000001D00F0EFFA06221C4904F10A0000F020
:101E5000E9FA4FF4C16121824FF480716182082157
:101E6000A1820621A1750421E175268304F12400D5
:101E700006223946064600F0D5FA05F10E0104F1B6
:101E80002A000422054600F0CDFA06220B4904F18F
:101E90001A0000F0C7FA0422094904F1200000F0FA
:101EA000C1FA012231462846FFF7EEFD2046FEF733
:101EB0002BFD2046BDE8F04100F0A2B82000001044
:101EC0006C4C001070B52149C0EBC00001EB40051F
:101ED0002A20FFF78BFD044606221D49001D00F055
:101EE000A1FA06221B4904F10A0000F09BFA4FF404
:101EF000C16121824FF4807161820822A282062290
:101F0000A2750422E27521830622002104F1240037
:101F100000F098FA042205F10A0104F12A0000F009
:101F200081FA06220B4904F11A0000F07BFA042220
:101F3000094904F1200000F075FA2046FEF7E4FCA0
:101F40002046BDE8704000F05BB800006020001043
:101F5000B20D0200200000106C4C00100622024955
:101F6000001D00F04FBA00002000001070B50446BC
:101F700000F122051F4E04221F49284600F042FAB4
:101F800030BB0422002104F11E0000F063FAE0B926
:101F900028780E21B1EB101F0ED1012020710020F6
:101FA00060715E20A071687800F07F00E071A87811
:101FB0002072E878607210E0284600F0EFF938B936
:101FC00001212846FFF7F6FD08B9002070BD061D67
:101FD00006223146201D00F025FA0622074904F1A9
:101FE0000A0000F01FFA082020822046FEF78CFC31
:101FF000012070BDB20D0200B80D020020000010DB
:1020000070B500282AD0A0F10806154C0025FEF76F
:1020100076FC10E0254624682068800703D0FEF790
:1020200069FC022003E034B9FEF764FC0120BDE83E
:102030007040FEF72DB9B442ECD10A4861680268DD
:10204000074B511A01609C4202D10020606001E000
:1020500020682860BDE87040FEF74CBC70BD0000F1
:10206000600000104C00001001784278090641EA37
:1020700002418278C07841EA02210843704700009B
:1020800010B5FEF73CFC00F03DF8074800218180C8
:1020900006493C220988C1800549064800F0C2F97A
:1020A000BDE81040FEF7F5B85000001094F80100AC
:1020B00050F801006C4C001030B5002106480A466B
:1020C0000123064C03E0027043700E30491C258842
:1020D000A942F8DB30BD00006020001096F8010036
:1020E00010B5FEF70CFCFEF70CFBFFF7E5FF04490B
:1020F000002008604860BDE81040FEF7FBBB000010
:10210000440000100648054900680844001F0022EA
:102110000860026003484A60026070476000001077
:1021200090F801004C00001010B5084A032100206F
:1021300001F0AAF906490870C0B2002804D0BDE831
:102140001040892101F0C4B910BD00006D240000C9
:1021500040000010034802782C204243002102482E
:1021600000F070B99DF801000421001004480078C7
:1021700000EB400082000021024800F063B900003B
:102180009CF80100EC2000102DE9F84304460F46AE
:10219000808AFFF717FC054621880E3081423BD329
:1021A000A07C0421B1EB101F36D1254E07EB870030
:1021B00006EB800104F122000422804600F022F99F
:1021C00008BB04221F49404600F01CF9D8B91FBBC8
:1021D00098F800100E224046B2EB111F04D1FEF712
:1021E00074F801281BD109E001460422684600F07A
:1021F00019F9B06800990843401C10D1E07E02280C
:1022000001D0112808D104F1120000F01DF818B90E
:10221000208B30F0C00009D00020BDE8F8832046B4
:10222000FFF79CFE0028F7D0E07EEAE7A07C0007DD
:10223000800E00F10E016180281A20800120ECE759
:102240006C4C0010B80D020001780907890EFFF7E9
:1022500099BB00002DE9F041214D80462878214CA2
:10226000C0070AD02049404600F086F840BB04224F
:10227000FF21404600F0EEF810BB1B4E28781436C4
:10228000800704D53146404600F076F800BB164F73
:1022900028782837400704D53946404600F06CF8C6
:1022A000D0B92878800702D52878000710D428787C
:1022B000400702D52878C0060ED42878C00704D07D
:1022C000002020700848BDE8F0812878800703D5F9
:1022D000012020703046F6E7022020703846F2E7F1
:1022E0008CF801005A0000106C4C00102DE9F041F0
:1022F000069F044688461546012A08D0022D06D0BE
:10230000062D04D0112D02D00020BDE8F081194E19
:1023100045217088401C70802088A174143080B2E0
:10232000E374FFF74FFBA0827088FFF74BFBE0825E
:1023300000202083A776E576A0834046FFF78AFF3A
:102340000146042204F11E0000F06CF8042241460C
:1023500004F1220000F066F804F11200FFF774FFA8
:10236000A08320882230208031782046BDE8F041CB
:10237000FDF7A6BF5A00001018B50C46014604220E
:10238000684600F04FF8206800994840A16808426C
:1023900001D0002018BD012018BD000038B504464A
:1023A00001460422684600F03DF80648009980681E
:1023B0000843401C01D0002038BD02492046FFF7E9
:1023C000DBFF38BD6C4C00100C4A002091780129CD
:1023D0000FD1907090880123401C80B29080D188EA
:1023E000884204D1064800880844D0805370137096
:1023F00001E010705070FDF758BF00005000001051
:1024000094F8010010B508E003780C78A34201D0DD
:10241000002010BD401C491C521E002AF4D101208E
:1024200010BD000030B504461046134606E000BF5C
:10243000254611F8012B641C2A705B1E002BF7D176
:1024400030BD000003E000BF00F8011B521E002A4F
:10245000FAD170473AB103788B4201D0002070471F
:10246000401C521EF6E70120704700002DE9FF4F87
:10247000DFF8189181B099F800100E9C1D4681423A
:102480007ED1892A7FD1322C7DD3688841F2010127
:10249000884278D1A8884FF4807A504573D1E88873
:1024A000002870D1288900286DD1688900286AD158
:1024B0002820FFF79BFA064605F10D00002203785D
:1024C00041781B01A3F5826341391943B154801C43
:1024D000521C102AF3D3B01810F8010C08B12028B0
:1024E00001D1521EF7D14FF0000806F1140006F892
:1024F000028017462649834600F0DCFB7A1C5946C9
:102500003046FFF77FFF012834D10C34A0B20746D4
:1025100000F0B2FF04462888208085206080A4F85F
:102520000480A4F806A0A4F80880A4F80A8095F80E
:102530000C8005F10C0108F10608424604F10C007C
:10254000FFF770FF08F10C0804EB0800082211499E
:10255000FFF768FF08F1080804EB080004220E49A1
:10256000FFF760FF00972346892299F8000002993F
:1025700000F0ECFF3046FFF743FD012005B000E01E
:1025800001E0BDE8F08F0020F8E7000040000010F7
:1025900010000010AA0D02006C4C001070B50188EC
:1025A0002A2941D3418A4FF4807291423CD1818AD9
:1025B000082939D1817D062936D1C17D042933D13D
:1025C000018B00F11205B1F5806F2DD00ADC4FF4BC
:1025D000007400F12A00914217D0A14224D10422B4
:1025E000124909E024304FF41064B1F5006F0FD0A8
:1025F000A14219D106220E49FFF704FF002813D08B
:102600002846BDE87040FFF7DBBB0422074901E024
:1026100006220749FFF7F6FE002805D02146284686
:10262000BDE87040FFF700BC70BD00006C4C0010AE
:10263000200000102DE9F84306464188001D0F18C0
:10264000358838462946FFF79DF958BB387830B3AE
:10265000082827D1787828BB05F12200FFF7C6F9B2
:10266000804600F1260400202070607060802A1FE0
:10267000391D201DFFF7D6FE29462046FFF782F9B7
:102680006080A8F80050802300930023012206F107
:102690001E014046FFF72AFE4046FFF7B1FC01202D
:1026A000BDE8F8830020FBE72DE9F05F064641888E
:1026B000001D83460D18287B6FF0030202EA90008C
:1026C00014287ED3328882427BD30144101A718051
:1026D0001FFA80F806F11201284600F0B9FB5FEA04
:1026E000000A06F11E076DD000220421381DFFF7F5
:1026F00055F9024604213846FFF750F90146F07EAD
:10270000FDF7F4FD01463088FDF7F0FD0246318803
:102710002846FFF743F9C0430004000C51D10AEBEF
:102720004A0101EBCA00E8494FF0100901EB8004AF
:1027300014F82C0D0B287DD2DFE800F04444B6E5F8
:10274000FEFDFCFBFAF90600687B410704D5A07882
:1027500040F00800A070ABE1810711D5C00630D56C
:10276000281DFFF781FCA169401C884229D105F191
:102770000800FFF779FC6169884222D148468DE163
:10278000D4E9041291423CD0C0061AD505F10800E4
:102790000746FFF769FC6169884214D12161002175
:1027A000204600F01DFEA078221D40F00800A07019
:1027B000A76A238904215046B847A07820F0080072
:1027C0001EE06FE0DAE0A07840071AD53846FFF740
:1027D0004BFC6169091F884213D12161676A042299
:1027E00038883918363107F13A00FFF71BFE3A21D5
:1027F000384600F0E7F904203880A07820F0040083
:10280000A070281DFFF730FCA1698842B6D1A178DD
:10281000B8F1000F41F00800A0700FD0E08968B156
:102820007188A66A01EB0B02434605215046B0476A
:10283000A16900E043E101EB0800A061687BC007EB
:1028400017D0D4E90410814213D1221DA56A23892F
:1028500002215046A847A069401CA0616069401C45
:102860006061112084F82200504600F0EDFC082140
:1028700006E1A178B8F1000F21F00800A0700FD098
:1028800084F822906078000707D5E089404502D996
:10289000A0EB080000E00020E081504600F0D4FCEE
:1028A000A08BE083BDE8F09F687B410701D5022142
:1028B000E6E0C10601D4800704D43946284600F07A
:1028C0004FFDF4E7221DA66A238900215046B04738
:1028D000002869D02946504600F000FC00F0AEFA0E
:1028E0002061401C6061281DFFF7BEFB401CA061F9
:1028F000122084F82200504600F0A6FCA07820F0B8
:102900000100A0704EE0687B41076FD4C1071AD068
:1029100005F10800FFF7A8FB61698842C2D1281DB4
:10292000FFF7A2FB401CA0616069206105E0BCE0EC
:1029300094E07CE068E03DE021E084F8229050469D
:1029400000F082FC10E0C10616D505F10800FFF783
:102950008BFB61698842A5D1281DFFF785FBA16922
:1029600088429FD160692061221DA56A23890121C7
:102970005046A8470A2183E0800793D414E0687B7F
:102980004107C2D4122636EA0001C1D080070BD518
:10299000281DFFF769FB401CA06184F822605046A7
:1029A00000F052FC03216BE039462846BDE8F05F99
:1029B00000F0D6BC687B41077AD4C10717D005F177
:1029C00008000646FFF750FB6169884205D0304693
:1029D000FFF74AFB21698842A0D1281DFFF744FB7D
:1029E0004044401CA0616069206119E060E0C006BD
:1029F0007FF558AF05F10800FFF736FB61698842A3
:102A00008CD1216106213BE0687B410750D4C0078F
:102A10003FF448AF281DFFF727FB4044401CA0614E
:102A200084F82290504600F00FFC092128E0687BD2
:102A300041073DD4C10608D505F10800FFF714FB96
:102A40006169884287D12161EFE7C007E0D0281D86
:102A5000FFF70AFB4044401CA0618FE6687B4107FA
:102A600026D4C10611D505F10800FFF7FDFA61690A
:102A70008842B1D1216160780221C00700D10121D3
:102A80002046BDE8F05F00F0B5BCC007C0D0281DEF
:102A9000FFF7EAFA4044401CA061112084F82200AC
:102AA0005046BDE8F05F00F0CFBB687B4107CCD556
:102AB000221DA56A238903215046A847DBE7BDE80C
:102AC000F05F0520FDF7E4BB042100102DE9F84379
:102AD00007464188001D0D18A888FEF773FF0828D7
:102AE00054D34FF000080126294CDFF8A8900DE0E0
:102AF0002078022808D16888FEF764FF6188884240
:102B000002D106F0FF0805E00C34761C99F80000AD
:102B10008642EDDDB8F1000F38D0617907F11E096A
:102B2000890725D5E88818B30022042107F122007F
:102B3000FEF734FF024604214846FEF72FFFFA7ED7
:102B400001461046FDF7D2FB0646A888FEF73AFF7D
:102B50003146FDF7CBFB0646A888FEF733FF01465A
:102B600032462846FEF71AFFC0430004000C0DD180
:102B70002888FEF727FF3988024608398BB2009370
:102B8000A46805F1080349464046A047BDE8F8831C
:102B9000EC2000109CF8010030B4084CD4E900236C
:102BA000511C01F01F01994205D0054B43F822004A
:102BB000216030BC704730BCFFF722BA44000010DF
:102BC000EC4B001070B520F8081904460F3140682E
:102BD00021F00305A8420CD9FDF791FE6068411B66
:102BE00004480268511A01606560BDE87040FDF755
:102BF00081BE70BD4C00001070B5FDF77DFB26480E
:102C00000078012801D1FFF75FF82449D1E90020BD
:102C1000824240D0224A52F82040401C00F01F005F
:102C20004860208A082806D0B0F5C16F2ED1204612
:102C3000FFF7B4FC2AE000212046FFF7A5FA08B30D
:102C400004F11E00042200210546FFF703FC28B909
:102C5000012204F10A012846FEF716FFE07E012852
:102C600009D002280BD006280DD011280ED12046FD
:102C7000FDF722FB0AE02046FFF7DCFC06E02046D9
:102C8000FDF73BFB02E02046FDF718FB2046BDE8C0
:102C90007040FFF7B5B970BD51000010440000103E
:102CA000EC4B00100A0E02700A0C42700A0A827085
:102CB000C17070470A78A2F16103192B00D8203A3D
:102CC0000270002A02D0491C401CF3E77047000044
:102CD000A0B10B490978884210D800EB400101EB04
:102CE000C000084901EB800010F82C1D0A2905D10D
:102CF000D0E90410814201D10120704700207047C3
:102D00009DF80100042100102DE9F04106008846DD
:102D100017461D4620D02248007886421CD81DB98F
:102D200000F04AF8050017D006EB46001D4900EBFD
:102D3000C60001EB80042C3C607880070CD5A06AAB
:102D400050B12078012801D0022805D104220021A9
:102D50004046FFF77FFB10B10020BDE8F081042260
:102D60004146201DFFF75EFB278165810020A07092
:102D700040F2B450A08141F21C10E08100F05EF8F6
:102D80002061401C6061022084F82200304600F07F
:102D90005BFA0421204600F02DFB0120DDE7000056
:102DA0009DF801000421001010B53630FEF71EFE1C
:102DB000362141803A3010BDF0B5124E124D00223E
:102DC0004FF480674FF47C4C7088401C80B2708058
:102DD000B84200D2778000210C48738807E044890C
:102DE0009C4202D10478012C04D82C30491C2C7848
:102DF000A142F4DB2878814202D0521C6245E3DB19
:102E00007088F0BD3A0000109DF801000421001008
:102E100018B108490978884201D9FF20704700EBB2
:102E2000400101EBC000044901EB800010F82C0CBC
:102E3000704700009DF801000421001003484FF680
:102E4000FF71008801EB0040704700005400001043
:102E50002DE9F04105460127224C01F10C08224ED4
:102E60001AE02078022815D02888FEF7ABFD2189CA
:102E700088420FD16888FEF7A5FD6189884209D193
:102E800004224146201DFFF7BDFA012802D1F8B205
:102E9000BDE8F0812C347F1C30788742E1DD687B0F
:102EA00010F0150F1CD180071AD501270D4C14E026
:102EB000207802280FD16888FEF784FD6189884256
:102EC00009D104224146201DFFF7ACFA2888FEF7FD
:102ED00079FD2081DBE72C347F1C30788742E7DDE9
:102EE0000020D5E7042100109DF801002DE9F047EE
:102EF0007348744B007898B1744A00217248147872
:102F00000BE0028C0AB1521E0284012C03D1C28B49
:102F10000AB1521EC2832C30491C1A789142F0DB50
:102F200000254FF011094FF00208694F694E9A468B
:102F3000A4E031780078814201D9012030703078E6
:102F4000614900EB400202EBC00001EB800414F881
:102F50002C0D0B2873D2DFE800F08D8D8D55557345
:102F6000837373680600D4E90420A178A0EB020003
:102F7000C9070DD060B9A07820F00100A07084F8D6
:102F800022906069401C6061307800F05DF913E0C8
:102F9000E18B99B984F822906069401C60613078B7
:102FA00000F052F9A078221D40F00800A070A56A38
:102FB000238902213078A847052179E0002859D0DB
:102FC000208C002856D194F8230090B1401E1C3468
:102FD000E0711820A071A16800230A883078154696
:102FE00000F044F9A06805803888A08020886080BF
:102FF00061E00021204600F0F3F9A07840F00800DD
:10300000A07044E0208CD0B994F82300F0B3401EA7
:1030100084F82300307800F017F9217838880329E4
:1030200001D02D480088208445E0208C38B9607894
:103030004146C00700D10121204600F0DBF919E02C
:10304000208CB8B994F8230000B3401E2034E070FF
:1030500084F80290307800F0F7F8388820802AE071
:10306000208C38B994F8230080B1401E84F82300E6
:10307000388820843078401C30706D1C9AF800101D
:1030800050468D42FFF455AFBDE8F087FFE70420BE
:1030900084F82200307800F0D7F8221DA56A238931
:1030A00003213078A84760784146C00700D101214C
:1030B000204600F09FF93078401C3070E4E70000B3
:1030C000500000109DF80100042100105100001074
:1030D000A0F801003A000010A4F80100F0B50A7B46
:1030E0006FF0030303EA9205143D28D01431002247
:1030F00040F2B45621E08B5C002B20D0012B1FD076
:10310000022B15D18C186378042B11D100EB4003EE
:103110000C4F03EBC003648807EB83032C3B64BABA
:10312000B44200D934469C819C7844F002049C70DF
:103130008B185B78002B02D01A44AA42DBD3F0BD77
:10314000521CFAE7042100102DE9F0470746A1F1CF
:103150003A0670881546362802D00020BDE8F08770
:103160009FB13548007887420FD875B107EB47000B
:10317000324900EBC70001EB800414F82C0D0A283B
:1031800003D1D4E90401884203D03046FEF738FF6A
:10319000E3E7A089A84200D205464819606105F11D
:1031A00036013046FFF70EFD3146204600F018F993
:1031B00060784FF0180A400726D5042D24D9A0784E
:1031C00040F00400A0703A20FEF710FC8046711910
:1031D000363104223A30FFF725F9102084F8220016
:1031E000281F82B2002391463146384600F03EF84F
:1031F00084F822A04B4604224146384600F036F8B7
:103200004046FEF7FDFE0BE0A078002320F004000E
:10321000A07084F822A02A463146384600F026F8ED
:1032200007483580008820840648007884F8230009
:10323000A08BE083012091E79DF80100042100109C
:10324000A0F801009EF8010070B505463A20FEF78F
:10325000CDFB0446002301461A46284600F006F836
:103260002046BDE87040FEF7CBBE00002DE9F843D4
:103270000E461746984678B137490978491C884266
:103280000AD800EB400101EBC000344901EB800497
:103290002C3CA089B84202D20020BDE8F88306F198
:1032A00026056089FEF78EFB28802089FEF78AFBC1
:1032B00068802169281D4144FFF7F4FC05F10800EE
:1032C000A169FFF7EFFC5020287394F8220068737F
:1032D000E089FEF777FBE881002028826882A078E9
:1032E00081070ED520F00200A07040F202407087E6
:1032F00006F13A07A089FEF765FB78806020287305
:103300000427201DFEF7A6FF00220421FEF746FB3E
:1033100002460421201DFEF741FB01460620FCF772
:10332000E5FF14370146B846B8B20746FCF7DEFFA2
:10333000024641462846FEF731FBC04380B2FEF705
:1033400041FB2882378080230093E3780622211DE9
:103350003046FEF7CBFFA0E79DF8010004210010E6
:1033600070B51D4E054630781C4B00EB40046A7B5F
:1033700004EBC00003EB800450072CD40422201D72
:10338000FFF750F82888FEF71DFB20816888FEF7BC
:1033900019FB60810020E070697BC9060BD505F13F
:1033A0000800FEF761FE2061042084F82200281D39
:1033B000FEF75AFE07E02061142084F82200281D41
:1033C000FEF752FE401CA0613078BDE87040401C02
:1033D000C0B2FFF739BF70BD9DF801000421001095
:1033E00070B50446406A0D4608B1FEF709FE6562F5
:1033F00070BD000070B501700446C9B2164D0020C2
:103400000B291BD2DFE801F01C1C1C200C15151524
:103410001506120011490988218484F823000DE063
:103420000F49104A09882184117805E0A08BE083B8
:103430000AE02A880121228484F82310E08370BDE9
:1034400000212046FFF7CCFF288807492084087810
:1034500084F8230070BD0000A0F80100A2F801006C
:10346000A6F80100A8F801009EF80100014901201A
:10347000887070475000001010B52A30FEF7B6FA79
:103480002A2141802E3010BD70B50AB9002070BDD0
:1034900001240D4B0D4D0FE01E785EB901251D7006
:1034A0005D7001F003015971187100205880E0B27D
:1034B0009A6070BD0C33641C2E78B442ECDD03209E
:1034C000FCF7E6FEE2E70000EC2000109CF80100AB
:1034D000F0B518B11A4D2A78904201D90020F0BDFC
:1034E000184A00EB400002EB80060C3E19BB164F59
:1034F00000224FF4806C4FF47C4E3888401C80B220
:103500003880604501D2A7F800C000210D483C88F2
:1035100007E04388A34202D10378012B04D80C3082
:10352000491C2B789942F4DB2878814202D0521C46
:103530007245E2DB39887180022030700120F0BDD5
:103540009CF80100EC2000103E0000102DE9F8432B
:103550000446A3F12E067088089F894690462A28C3
:1035600002D00020BDE8F883E4B1374800788442F7
:1035700018D8042200214846FEF76CFF90B9B8F134
:10358000000F0FD04FF4B860874200D907462F498B
:1035900004EB440001EB800515F80C0D022801D165
:1035A000688818B93046FEF72BFDDAE706F12604E5
:1035B000FEF708FA20804046FEF704FA08376080DC
:1035C000B846B8B20746FEF7FDF9A0800020E080BB
:1035D0006879C00721D04846FEF73CFE002204214E
:1035E000FEF7DCF9024604214846FEF7D7F901460A
:1035F0001120FCF77BFE01463846FCF777FE0246B9
:1036000041462046FEF7CAF9C0430004000C01D130
:103610004FF6FF70FEF7D6F9E080378099F800008A
:1036200080230E21B1EB101F00D16B7800932B7912
:10363000112249463046FEF759FE04463046FEF751
:10364000DFFC20468EE700009CF80100EC20001013
:10365000821041080000000020082008000800082F
:1036600000080008000800080008200800080008FA
:10367000200800082008000800080008200820088A
:1036800020082008000000082008000820108218E8
:103690008220A220A2208220A218A22082208218AA
:1036A00082188218A220A220A220A218A218A21872
:1036B000A218A218821882188218821882188218FA
:1036C000821882186118611861106118C328C2201D
:1036D000C220C320C220A220A220A220A220A21881
:1036E000A218A218A218A218A218A220A220C220D2
:1036F000C220C320C320A2208220822082208220D8
:10370000A220A218E3200000000001000100010037
:10371000010002002200220022002100010001001D
:103720000100010001000000000000000100010094
:103730000100010001000100000000002100420022
:10374000518C6A52C320C220C220E328E328C32838
:10375000C328C328C320C320E328E320C320C320F9
:10376000E328C220C220C220C220C320C320E320FD
:10377000E320C220C320E328E328C22044316C7B2D
:10378000D1B4B0ACD0AC6FA4D0ACB0AC8FAC4FA4C3
:103790000E9CCD9390AC12BD11BDF1B411B5B0AC7F
:1037A000D0ACB0ACB0A48FA46FA44F9C2E9C0E9450
:1037B000ED93ED93AD8B6D830B73EA72D0ACD4CDEA
:1037C00092CDD4CDB4CD73CD73CD73C553C532BDB9
:1037D000F1B4D1B4D1B4F1B411B531BD93CDB3D5F9
:1037E000F4D5D4D552C58FAC6FAC6FA490ACD2B425
:1037F00034BD35B5318C62086208830884108410AA
:10380000C5180621272927290621E520C418C41830
:10381000A3108310A41062104208410842086208F5
:103820006208420842086308420083002611891199
:1038300010846A52A320C128A1208120A228A22896
:10384000A228A228A228A228C228C220A220A22000
:10385000C220C228C228C228C228C228A220C22050
:10386000C220C220A220A220C220C22860208441FF
:10387000EC9B2DAC0CA44DAC4DA42DA40DA4ED9B44
:10388000AC9B4B8B6B93ECA38FB4AFB48EAC6EAC94
:103890006EA46DA44DA42D9C0D9CEC9BCC93AC937D
:1038A0008B938B8B4B8B2B8BEA7A696A46624DA488
:1038B00030C5F0BC11C5F0C4F1C4F1C4F0C4F0C40B
:1038C000D0BCB0BCB0B4D0B4F0BC10BD30CD71D55C
:1038D0000FC56EB42DAC2DAC4DAC2DAC4EACB1B40F
:1038E000D3B4CB6AA318420043008408A510C618BD
:1038F000E620E720E720C618A518A518C518A410CB
:1039000083106308630861084108410842084208BF
:103910004208620842004200830006118911CB0967
:10392000F07B494A82108218A218C320A320A42049
:10393000A420A320A320C320A220C220A220A32031
:10394000C220A218A218A218A218A218A21882189F
:1039500081188110A2208218A218A218A220811812
:1039600068620E9C2DA40DA42DA42DA42DA40D9C45
:10397000CC9BCC9B4A8B298BECA3AEB4AEB48EB45B
:103980006DAC8FAC6FAC4EA42E9C0E9C0E94ED9340
:10399000AC93AC8B6C8B4C830B7BEB724862065AFE
:1039A0000D9C31C510C5F0C4D0C4D0C4B0C4CFCCB8
:1039B000F0CC11CD11CD31CD52CD52CD51CDEFC482
:1039C0004DAC2DAC6FB48FB470AC50A4B2AC72A43B
:1039D000ED6A84188518A518C518C518E6200621B3
:1039E000C618C618E61885108510640863086308B1
:1039F0004308230822000200230023004400440857
:103A000043084208430084000709CB110C12CB097C
:103A10002D63C739A318A2186210A218C320A318D7
:103A20008218A218A218C320C320032924294529DB
:103A300065318531A639C639C739E7410842284A78
:103A4000484A2742274A694A8952694A484A074AE6
:103A5000685A6B834EA40D9C4DA40DA42DA42DA4D7
:103A6000ED9BCC9BAC936A936A8B2CA4AEB48EB4C2
:103A70008EB48FAC6FAC6FAC4FA42E9C2E9C0D946B
:103A8000ED93AC938C8B6C8B2B830A7BEA7A486228
:103A9000E6592DA431C510C5F0C4B0C4B0C4F0CCF3
:103AA00031D552D572DD72D552D531CDAFBC8EB481
:103AB0004DB48FB4B0BCB0B470A470A491A4308CD9
:103AC000F083D07BF183318411843184AF738E73A2
:103AD0004E6B2D630D63AC528B528A528A4A694AEF
:103AE00029420842083AA63166292521E4108310AC
:103AF000420841082100A4088811EB11EC11CB0900
:103B0000E839E418A318C3186952108C518C0F843B
:103B1000EF83CE7BAD7BAD7BAD7BAD7BCE7BCF7BB7
:103B20002F844F844F844F84708C708C508C708C99
:103B3000708C6F8C4F8C908C708C928C3084508CED
:103B4000CE83AD8B0D9C2DA42DA44EA44EA42EA4EB
:103B5000ED9BED9BCC9BAB9B298B698B2CA4CFBCA5
:103B60008EB4AFB48FB48FAC6FAC4EA44E9C4E9C51
:103B70000D94EC93AC938D8B4B83487B0B7BCB727A
:103B80004A6247622DA450CDF0C4B0C4F1CC31DDFF
:103B900092E593DD92DD72DD31D58FC48FBC8FBC91
:103BA0006EB46EAC4EAC2EA4709CB19CD29CD29CD8
:103BB000F29C139DF39CF29C12A5D29C129D119D28
:103BC00032A533A5139D33A533A532A5119D119DB3
:103BD000F19CD19432A511A5D19CD194D294718C31
:103BE0000F84AD7BCE738E638C2AEB09EC09CB0975
:103BF000A418A3104529908C54A554A5F394B28C15
:103C0000928471845184317C307C30843184317C65
:103C1000317C317C3184317C307C307C307C307C38
:103C2000307C317C117C117C107C0F840F7C0F7CEC
:103C3000EE73AD7BEE830E9C0DAC2DA44DA42DA494
:103C40000E9CEE9BCE9BAD93AC934A834A836EACA5
:103C5000CFBC8FB4B0B4AFB48EAC8FAC6FA44FA454
:103C60002E9CEE93CD93AC93AC8B698B2A832A83E5
:103C7000EA7A686A06622FA431CD31CD31D532D5CA
:103C8000B3E593DD52D5F2C470B46EB4EEC4CFC4C4
:103C90006EB4AD93AD8B2E94D294D294D294D29430
:103CA000D394D39CD294D39CD394D394D394D294CE
:103CB000D294F394D294D294D28CD394D394B294D9
:103CC000D394D394B394F294F394F394F294D2945F
:103CD000B294F394339DF39CB29CCE3AEB19AB09AA
:103CE000C418C4188E7375AD139D918C5184517C8A
:103CF000307C1074107C107C107C107C307C307C0C
:103D0000317C317C317C317C307C307C307C307C4F
:103D1000317C317C117C117C107C10840F7C0F7CF9
:103D2000EF73CE7BAD7BCD930DA42DA42DA42DA43C
:103D30002D9C0D9CCD93CD93AD938C8B4A8B6B8B2F
:103D40006EACD0BCD0BCD0BCCFB4AFB4AFAC8FAC39
:103D50006FA42F9C0E9CED93CD938B936B8B2B8B31
:103D60002A83EA82C97A6772EDA311CD72DDB3E5C9
:103D700072DD51D5D0C4B0BCD0BC11CDAFC48B9BCB
:103D80006A93ED9B2E9CB0A4B294D294D29CD29410
:103D9000D39CD39CD39CD39CD394D394D394D394CB
:103DA000F294F394D294D294D294D394D394D3949F
:103DB000D394D394D294F294D294B394D28CB194F9
:103DC0009194D394D294D294929CAE3ACB11AB09F5
:103DD000A410C318EF8376ADB3945184517C317C29
:103DE000F0731074117C107C107C107C3084308453
:103DF000317C317C317C117C117C107C107C117CFD
:103E0000117C117C107C107C107C107C107C107C50
:103E1000F07BEF7B8D7B8C830D9C2DA40E9C2C9CCA
:103E20002CA42C9CED9BCD93AE938E934C8B0A834C
:103E30008B938FB4F0C4F0BCCFB4D0B4D0B4B0B4D2
:103E400090AC70A40E9CEE9BCD93AD938C934B8B5A
:103E50004A8B2A8B2B934B930A8BACA38FBCCFC47A
:103E6000CFC48EBCF1C4F0C472D532D52B938CA3D1
:103E70002DACAEB4B0ACB2A4B294D294D29CD29CCD
:103E8000D39CD39CF39CD39CD394D394D394F39C92
:103E9000F39CF394D394D394D394D394D394D394A2
:103EA000F294F294D294F294D294B294D28CB294CA
:103EB000B294D394F294D294D39CCE3ACA11CA0944
:103EC000A3180421EE7BD3945184307C1074307C91
:103ED0001074307C307C307C507C30845084507C3A
:103EE000507C307C307C117C307C107C107C307CB1
:103EF000307C317C107C107C307C1084307C107CD9
:103F0000117CF07BCF7BAD7BED8B2E9C0D9C0E9CB2
:103F10000E9C2EA4EE9BED9BEC9BCC93AC936B8BF9
:103F20000A83AC938FB4F0BCF0BC10BDF0BCD0B42D
:103F3000D1B490AC4FA40F9CEE9BAE93AD93AC9BD1
:103F4000AC9BAB9B8C9BCDA30EAC0DAC2DAC8DB4C0
:103F5000CFC451CD50CD93D52EAC2C93CDAB4EB418
:103F60006EB4B1B4F2B4B1A4D294D29CD294D39C26
:103F7000D39CD39CD39CD39CD394F394F394F39C81
:103F8000F394F394D394F394D394D394D394F39479
:103F9000F294F294D294F394D394B394D294D294AE
:103FA000B294D38CD294D294B39CCE3ACA11CA099B
:103FB000E41803218D73317C107C307C307C307CA4
:103FC000307C307C517C5184518451845084507CAD
:103FD000317C317C317C117C317C307C307C317C9B
:103FE000317C317C117C107C307C10841084307CDE
:103FF000317C107CEF7BCE7BAD83ED930D9C0D9CD3
:104000002D9C2D9C0E9C0D9CED9BCD93AD936C8BAC
:104010004B8B0A83CC9BB0B411C510C510BDF0BC4E
:10402000D1B4D1B4B0B46FAC4FA40E9CCD9BCD9B9A
:10403000CD9BCDA3EDA32EB44EAC6EB4CFBCEFC4DC
:1040400030CD72D592D5B0BC2A8B4C934EB44EB4C1
:104050008FB4D2B4D1AC919CD294D294D29CF39C24
:10406000F39CD39CD39CD39CD39CF39CF39CF39460
:10407000F394D394F394F394D394D394F394F39468
:10408000F394D394F394D394D394B394D294D294DA
:10409000D294D38CF294B294B29CCE3ACA11CB098A
:1040A0002521484AAD7B317C107C107C5184307CCA
:1040B000317C51845184518431843184307C507CF2
:1040C000317C317C117C117C31843184317C3184B0
:1040D00031843184317C117C307C2F8410841084B5
:1040E000307C317CF07BCF7BAE7BCD8BEC9B2C9CF2
:1040F0004CA44CA42D9C0D9C0E9CAE938D938D9343
:104100006C930B8B0B832EA411C5F0BC31C511BD74
:10411000F1BCF0BCD0B4B0AC6EAC2DA40DA40EA418
:10412000EFA30EA42EAC4EACCFBCEFC410CD51D536
:1041300071D592D5B1BC6C93AC9B0CAC0DB42EB4C4
:1041400090BCF3B4B2A4929CD29CD294D29CF39C27
:10415000F39CD39CD39CD39CF39CF39CF39CF3944F
:10416000F294D394F394F394D39CD394D394D394B0
:10417000D394D394F394D394D394B39CF394D294E0
:10418000D294D394F294B294B3A4CD3ACA19CC0980
:10419000A3394A73CC83317C317C5184518452845D
:1041A00052843184317C3184317C307C317C317C6F
:1041B000317C317C317C317C31843184317C317C87
:1041C00031843184317C317C317C307C307C307C7A
:1041D000317C10841084F07BEF7BCE83CE8B4D9CA2
:1041E0002DA42DAC0EA42DA40DA4EE93AE938D930F
:1041F0008B8B4B832A83E97A4EA4F0BCCFBC10BDD5
:1042000031BD11BD11BDD1B4B0B48FAC6FAC6EACCB
:104210006FAC8FB48FB4F0C430C571D571D5B2DD39
:1042200094D56FAC8B93CCA32EB40EB42FACB1B499
:10423000F2B4D2A4D29CD29CD39CF39CF39CD39C8A
:10424000D39CF39CF39CD394D394D394D394F394BE
:10425000F394F394F394F394D394F394F394D39466
:10426000D394D394F394F394D394D294F394D294B8
:10427000D29CF294D394B294B2A4CF42AB11EC117D
:10428000A4392A6BED835184518451845184528422
:104290003184317C317C317C317C317C317C317CAE
:1042A000317C317C307C317C318431843184318487
:1042B00031843184317C317C317C317C317C317C86
:1042C0003084308410841084F07BCF83CE830D94AF
:1042D0004DA42DAC0EA42DA40CA4EE9BCE938D93D7
:1042E0008B936C8B2A83E97AA8726EACD0BCCFB466
:1042F00011C531C511BD12C5D0B4D0B4B0B4B0B47D
:10430000D0BCF0C410C530C592D5B2D5B2DD71CDE8
:104310000EA4AC9BCCA3EDAB0DACEDABB1B4F2B441
:10432000B2ACD29CF39CD394F39CF39CF39CD39CAF
:10433000D39CF39CF39CF394F394F394D394F3946D
:10434000F394F394D394D394D394F394F394D394B5
:10435000F394D394F394D394F394F294F494D29486
:10436000F29CF394D394B294B29CAF42AA11CB09BD
:10437000432947528C7B7284518451845184318407
:104380003184317C317C317C317C317C317C317CBD
:10439000317C317C31843184318431843184318485
:1043A00031843184318431843184317C5184517C35
:1043B000308430843084308410840F84CE83CC8B5E
:1043C0002E9C4EAC2EAC2DA42DA40E9CEE9BAD933A
:1043D0008B936C932B8BCA82A87AE9824EAC11C561
:1043E000D0BCF0BCF1C432CD32C5F1C4F1C4F0C4CC
:1043F00010C531CD51CD92D572D593D511CDCC9B71
:104400008B9B0DAC4EB44EB44DB42DAC12BDD1ACA3
:10441000B29CD39CD394D394D39CF39CD39CD39C35
:10442000D39CF39CD39CD394F49CD394D394F394D3
:10443000F394F394F394F394D394D394D394F394A4
:10444000F394F394F294D394F394F29CF494D2946E
:10445000D29CF294D294B294B29CAF42AA11EB09CE
:10446000E420C6396C737284518451845184518420
:104470005184317C317C5184317C317C5184317C5C
:10448000517C317C31843184318431843184318474
:104490003184318431843184318431843184308475
:1044A0005184318431843184118410840F84CE8B03
:1044B000EE934FA44EAC4EA44EA42EA40D9CCC9BC8
:1044C0008C934B8B2B832A83C97A8872A8726FAC2A
:1044D000F1C4F0C411C5F0C411CD11CD11CD10CD72
:1044E00031CD71D592DD71D593DDD0C46B9BCDA359
:1044F0000CAC8DBCAEBCAEBCAFB4AFAC12ADB19C1D
:10450000D29CF39CD394F49CD39CD39CD39CD39CFB
:10451000D39CF39CD39CF394F49CD394D394F394C2
:10452000F394F394F39CF39CF49CF394D394D3947A
:10453000F294F394D294F394F394F29CF494D2947E
:10454000D294D394D394D394B29CCF42CB19EA1192
:10455000E420A6398C73728451845184518451842F
:104560005184317C317C5184317C317C5184518443
:10457000317C317C318431843184318431843184A3
:104580003184318431845184318431845184308444
:104590005184518431845184318430843084EF8B50
:1045A000CE8B0E9C4EA46EAC6EA44EA42DA4EC9BA0
:1045B000AD9B8C936B8B4B8B0A830A7B476AC87AC3
:1045C000B0B4F1C4D0C4D0C411CD32D552D592DD2F
:1045D000B3E5B3E592DD51D54EB4AC9B2EB42EB409
:1045E0008EBCCEC4EFC4F0C4D0B4B0ACD1A4F2A49D
:1045F000D39CD39CF49CD39CF39CF39CF39CF39CA2
:10460000D39CD39CD39CD394F49CD394D394F39411
:10461000F394F394F394F394F394F394F394D39C7A
:10462000D394D294D294F394F394F29CF494F394AC
:10463000D294F394D394D394B2A4104B2C222C1A7A
:10464000E420A6318C6B928C518451845184518426
:104650005184317C307C317C5184317C317C317CA3
:10466000317C317C3184317C3184318431843184BA
:104670003184318431845184518431845184518412
:10468000518451843184318431843084507C118C44
:10469000CF8BCE8B2DA46FA46FA46DA44DA40C9CC6
:1046A000CE9B8C936B932B8B4B8B0A83E97A476A57
:1046B0000983B0C4D0CCD0CCF1D472E5D3ED15F6DB
:1046C00035F6F4ED52D52DB4ECAB2DAC6EBC8FBCF1
:1046D000AEBCEFC410C5F1BCB1AC91A4B39CD49CEA
:1046E000D49CD39CD39CD39CD394D39CD394F39C41
:1046F000D39CD39CD394D394D394D394F394F39432
:10470000F394D394D394D394D394D39CF39CD39C19
:10471000D39CD39CD294F394F394F394F394F394B2
:10472000F29CF394D394B294919C304B6D2A6D1A01
:10473000E420A6398D7B9284718451845184518404
:104740003184308451843184317C318411843184CA
:104750003184318431843184318431843184307CBA
:10476000318431841184117C118431841184118449
:10477000F07B1084107CF07B1084108410841084F3
:10478000108CEF830E944FA44EAC4EAC4EAC0EA4E6
:10479000EE9BAD9B8C936C934B8B2A8B0A83CA82C6
:1047A000887A6C9BF1CC31D531DD72E5B3EDF4ED57
:1047B000D3E5D0C42DB40DB46EBC8FC4AFC4AFC4A8
:1047C000F0CC10CD31C512B5D1A4D29CD39C92941B
:1047D000B39C929CB294D39CB294B294B294B2948F
:1047E000B394B294B294B394B294B29492949294D7
:1047F000928C9294928C728C728C929492949294E9
:104800009294B294B294D394B294D39CF394F394CC
:10481000D394F494F294D294B3A4EF422C224D1288
:10482000E32065314C7372845184518451845184E6
:104830003084107C3084107C107C317C1184118495
:1048400031843184318451845284728C728C7184AD
:10485000728C728C9394738C9394938C928C9294AC
:10486000B394B394B394B394B394B394D39CB394E8
:10487000B29CB39C909C6FA44EA44EAC6FB44EAC53
:104880000EA4EEA3AD9B8C938B936B934B934C93A5
:104890002B93EA8A4A9B0CB431D532E552DDAFCC7A
:1048A0002DB42DB46EBCD0CC11D510D530D551D58A
:1048B00052D552CD11BD12AD13AD34A534A555ADB1
:1048C00034AD34A555AD34A534A534A534A535A5EE
:1048D00034A535A535A535A535A535A534A535A50A
:1048E00035A535A535A534A534A534A534A534A5FD
:1048F00035A534A534A5139DB394B394D394D39420
:10490000D394D394D294D294D3A4EE420B1A0C0A2B
:10491000E41865292C6B518431845184518430848E
:1049200051843084318431845184728C928C938C84
:10493000928CB28CB394B38C928C928C928C928C1D
:10494000928C928C9294929492949294B394929426
:10495000B294B294B28CB294D294B394B394B3940C
:10496000B394B394919C91A470A44FAC6FAC4FAC32
:104970004EAC0FA4EE9BAD9BAC938C938C936C9B35
:104980008C9B8DA36BA3ABA3CCAB2FC42FBC2EBC35
:104990006FBCEFCC30D551DD71E571DD71DD71DDBE
:1049A00072CD52C512B533AD34A554A514A514A5C6
:1049B00034A534A5349D549D35A5349D349D349D36
:1049C00034A534A534A534A5549D349D359D349D1E
:1049D00035A534A534A534A534A534A534A534A50E
:1049E00034A534A5149D54A5D394B39CD394D394E7
:1049F000B394D394D294D294B3A4EE420C224D1A21
:104A0000E41865292C6B718451845184518431845C
:104A100031843084318430845184928C928C938C94
:104A2000938C938C928C928C928C928C928C928C94
:104A3000928C928C938CB394938C938CB394938C30
:104A4000B394D494B394B394B394D394F494D39C84
:104A5000D39CD39CB29CB19C919C4FA42EA44EACF1
:104A60004EAC4EAC0DA40DA4EDA3CC9BCC9BACA343
:104A7000EDAB2DB40DB44EBC8EC48EC4CFCC30D5AE
:104A800091DDB2E5D2E5D2E5B3DDB3DD93D532CD2C
:104A900033B533AD33AD54AD55A535A514A535ADFE
:104AA00014A534A534A5559D34A534A534A534A545
:104AB00034A534A534A534A535A534A535A535A52B
:104AC00035A534A5349D349D34A534A534A534A52D
:104AD00034A534A534A534A5D394D39CF394D394AE
:104AE000B294D394F294D294B2A4CE42AA19AB1148
:104AF000E41865292C63928C51845184518431844B
:104B000031845184518430845184928C928C938C62
:104B1000928C938C938C938C938C938C938C938C9E
:104B2000938C938C938CB38C938CB38CB394B394FD
:104B3000B394D494B394B38CD394D394D494D39C9B
:104B4000D39C14A5F3A4D3A4D2A491A44FA42EA4BF
:104B50002DAC2DAC2DAC4EAC4EAC2EAC2EAC4EB420
:104B60004EB48FBCD0CC10D531DD71E5B2EDF3ED94
:104B700013EE13EEF3EDB2E593DD73CD12BD12B576
:104B800033B553AD54AD55AD55A555A535ADF4A4CC
:104B900014AD75AD149D55A534A534A534A534A523
:104BA00035A534A534A534A534A514A535A535A55A
:104BB00035A555A534A5349D349D34A534A5349D23
:104BC000349D34A534A534A5B394B394F394D39C05
:104BD000D394F394F294D294D2A4CD42CB19EC198D
:104BE000E41865312C6B9184518451845184528432
:104BF000317C317C3184107C5184928C928C938CEA
:104C0000728C938C938C938C938C938C938C938CCD
:104C1000938C9394B28CB28CD38CB38CB38CD3948E
:104C2000D394D394B394D394D394D494B49CD49C79
:104C3000F4A4118CF08372945294719C91AC2FA4C3
:104C40000EAC2DAC2DAC4EB46FB46FBC6FBCB0C409
:104C5000F1CC11D552DD73DDD4ED13F613F6F3ED7F
:104C6000F3EDD3E5B3DD93D553C533B533B574ADAB
:104C700074AD54AD54AD55A555AD55AD35B5B3A4D2
:104C80008F83929455AD34A534A534A535A535A5AB
:104C900035A535A535A535A535A535A535A535A544
:104CA00035A555A555A534A534A534A534A534A5F9
:104CB00034A534A5349D34A5D39CD39CF394D39CC4
:104CC000D39CF394D294B294D2A4EE4A0B220D1A40
:104CD000042145290C6371843184518452843184C8
:104CE00031845184518431845184938C938C938C7E
:104CF000938C938C938C938C938C938C938C938CBC
:104D0000938C938CB394B394B394B394B394B394BB
:104D1000B38CB38CD494B394D394F49CD59CB39CAF
:104D20006E7BAA6AEB622A62EB69EC71EB8270B46B
:104D3000EEABEDAB0DB42EBCB0C4B0C490C411D575
:104D400052DD92E593E5B3EDD4EDB3EDD4E593E513
:104D500093E5D4D5B4CD73BD13BD54B554AD54ADA6
:104D600074AD54AD55ADD6BC0E8B6B7AAB628B6A0D
:104D7000C861EA61708377BD34A534A534A5349D3C
:104D800054A534A534A534A514A534A5559D359D49
:104D900035A535A535A535A534A5349D35A534A54E
:104DA000349D34A5349D34A5F39CF39CF494D394A2
:104DB000D394D29CD294D294F39CED524B2A6D1A88
:104DC00004194529EC627184307C3184318431844A
:104DD00031843184318431845184938C938C938CCD
:104DE000938C938C938C938C938C938C928C938CCC
:104DF000B394B38CB38CB394B394B394B394B3948B
:104E0000B38CB38CD394D394F49C93941284AB5A04
:104E1000F08BF3B4F3A433AC4961EC71296A2B8BAA
:104E20000FB40DB44EBC8FC490C4D1CC32DD72DD52
:104E300092E5B2E5B3E573E573E573DD73DD12D595
:104E4000B1CC4FA4D1AC33AD54BD54B554AD75AD58
:104E500054AD34AD14ADCD8AEA71A9610C6B93AC3D
:104E6000D4C4B1A30A628C62D39C34A534A574A5C2
:104E7000139D54A534A514A534A534A5559D359D81
:104E800035A535A535A535A5349D349D34A534A566
:104E900034A5349D55A534A5F39CF394F394D39491
:104EA000D294D29CD29CD29CF49C0D5B6B32AD2AE6
:104EB00004194529EB5A5184307C317C317C317C9A
:104EC0003184317C10841084518C728C728C938C60
:104ED000938C938C938C938C938C938C938C938CDA
:104EE000B38CB38CB394B394B394B394B394B38CA2
:104EF000B38CB394B394D39C32948B62C851CB6A75
:104F0000D3A4F49C14A5B093CA61CD9353B4C961E2
:104F1000ED934DB4AEBC0FCD10DD51E571EDB2F5A2
:104F200092ED72DD73DD74D5B1BCEFB3ECA2E9791B
:104F300009726C7A6C7AAD7AF08BB3A455B5D4A5AE
:104F400075A555AD6E93066A51B4CE8A695AB29C66
:104F500096AD13BDAB8267612A5AF18B15AD35A5AD
:104F6000559D349D549D34A534A534A534A554A530
:104F700054A554A554A554A534A534A534A534A5E9
:104F800034A534A554A534ADD39CD39CF394D394C9
:104F9000D294D294D29CD29CD39C8B5A262947215E
:104FA00004194529EB5A5184107C317C3184117CE1
:104FB000107C307C308410843184728C728C928CA2
:104FC000938C938C938C938C928C938C938C938CEA
:104FD000938C938CB38CB38CB38CB38CB38CB38C19
:104FE000B38CB39CB49CB4AC6C6A8B6ACF8BEC6A08
:104FF0008E7BD3A413844A5A6E8334B5D1A3C96976
:10500000AF9BB0BCD0C411D572E5D4EDF4ED93DD07
:1050100073D513CDF0BB4B92C98969812879897901
:10502000AC8214B5F3ACD3A4308C0D7BEC7A319404
:10503000F5B415C58C92C86172ACF2ACC8494A622D
:10504000B08BB09349624D83CE8A885173A435AD3D
:10505000349D549D54A554A555A534A554A554A5D7
:1050600055A534A554A555A534A534A534A534A516
:1050700034A534A5349D34A5D39CD39CF394F394E8
:10508000F394D28CF29CD29CD3A4495AE3200421FD
:1050900004194529EB625184307C31843184117CC0
:1050A000107C3184318430843184728C928C928C67
:1050B000938C938C938C938C938CB38CB38CB38C98
:1050C000B38CB38CB28CB28CB28CD38CD38CD38C8B
:1050D000D394939C93A4ED7A89518B6AB2A4D4A4FF
:1050E000108C4D73D27BD4A434B5B3A42B72A969B0
:1050F000C869E6618C9390BC32D531CD11CDF1BC3D
:10510000D2BC71BCC9794879288149816A89897979
:105110000972B2A4D6C595AD75B555BDB4B40D7BB5
:10512000E9610A72687989618B6A33AD36BD32A450
:105130008C724B6A109CD2AC2C8268592A62B3A440
:1051400075AD349D54A554A554A534A554A535A5D5
:1051500035A555A535A535A535A555A534A534A541
:1051600034A534A5349D35A5D39CD39CF394F394F6
:10517000F394F394F39CD29CD3A44962E3280329CB
:10518000042145290C637184308431843184318455
:1051900031843184318431845184928C928C738C2B
:1051A000938C938C938C938C938C938CB38CB38CC7
:1051B000B48CD48CB38CB38CB38CD38CD38CD38C75
:1051C000D394B4A43294EA616969EA694E83338D59
:1051D000349D15AD73A515AD34A40D7A6871487171
:1051E00069718B7292ACD2AC11A512AD12B5D3BC61
:1051F000D4CC0E9B4871A9810A8A0972CC92E979B4
:10520000EA792D7B35AD96AD75AD75AD95AD75B5BE
:105210002E9B47716979287948712B6A719454AD36
:1052200054AD74ADB3AC8D7A2769E969296AF093FE
:1052300034AD34A554A535A534A534A555A535A55B
:1052400035A555A535A535A535A535A534A534A570
:1052500055A555A534A554A5F394D294D39CD39CBD
:10526000F394F394F394D294F3A4685A233143391A
:10527000042146290C635184307C307C3184317C9C
:1052800031843184318431845184938C938C938C18
:10529000938CB38CB38CB394B38CB38CB394B38C26
:1052A000B38CD48CD38CD394D394D38CD394D39405
:1052B000D394F4A4AF836B720D7BAF8B0C73ED6A48
:1052C0002E830E83CD826C82EA71A8596A6A6E932E
:1052D000EB816A6A309C13A5F3AC13AD13ADF4B443
:1052E00090A3C979296A8E93F0A3296292AC8F9B0F
:1052F00089790A728F8B96B575A576AD35B593AC65
:105300006B7A88698A822EA327694879E9710B7ABA
:105310006D828A728A72296AEC7AD09BD09BCC7A91
:10532000149D75AD34AD34A555A535A5759D55A510
:1053300034A535A555A5359D35A5359D359D55A576
:1053400055A555A555A554A5D394F394D394F3949A
:10535000F394F394F39CD29CF3A468622431443117
:10536000052146290C637284307C317C5184517C48
:10537000317C5184518431845284938C938C938CEE
:10538000938CB38CB394B394B394B394B394B38C1D
:10539000B394D394D38CD394D394D394D394D394FD
:1053A000F494D39C2D738B7A8D7B309410947093EE
:1053B000EA6189598971697148714A62719C92A444
:1053C000CA79ED7AAF83D29C34AD13A534AD52A423
:1053D000EA79A9794D7B13B5B1A4AB6AF3A4D4BC27
:1053E0002B8AA9714A6AF4A496A555AD14B54E8BC3
:1053F0008B7A8B7AEA7AD4C42A8207794871497108
:105400004A718A7AEC82D09B50948F93ED822A6AFB
:10541000F39455A535AD34A535A535AD759D55A588
:1054200034A534A555A555A555A555A555A555A5EE
:1054300055A555A555A534A5D394F394F394F394A9
:10544000F394F394F39CD29CD2A469620431453165
:1054500004214529EC62728C318431845184518459
:10546000518451845184317C5284938C938CB38CBD
:10547000B38CB394B394B394B394B38CB38CB3940C
:10548000B394D394D394D394D394F394D394D494E3
:10549000F494F4A48B62A8694A6AED82ED8AEA6208
:1054A00010946E834869A871A769EB6AF3A46E7BB8
:1054B0008A72D4A45194729C54AD14AD15B54D9A12
:1054C000C9618B6A14A555B5929CAB7234A576B5AB
:1054D000B29C8A896869CC7255AD35B5B4AC0C6B99
:1054E000B2A4919CA962D2A4CF9B677968718869A4
:1054F0006B6A0F8C109C29724B824B8A4869C96970
:10550000318475A535A5549D54A535AD55A555A532
:1055100055A555A555A555A555A555A555A555A5BB
:1055200055A555A555A534A5D394F394F394F394B8
:10553000F394F394F394F39CF3A4695A0331243164
:1055400025214529EC62728C318431843184518467
:1055500051843184528452845284B38CB38CB38C82
:10556000B38CB394B394D394B394B38CB38CB394FB
:10557000D394D494F394D394D494F38CF494F49477
:10558000F494B3A42A626871886188618971EB6AB6
:10559000B2A4AF838D8288698869CC72B4A44E733B
:1055A000308C14ADB39C319475A535ADF093697111
:1055B0006B6A929475AD55AD729CCC7235A575AD84
:1055C00076ADD1ABC969C971108456B593A44E7B31
:1055D000F3A454AD4D7B108C72AC687167696B7A23
:1055E0006E83519C2E936869476928714979897146
:1055F000F08355A535A5549D549D55A555A555A594
:1056000055A555A555A555A555A555A555A555A5CA
:1056100055A555A555A534A5D394F49CF394F394BE
:10562000D394F394F39CF39CF3A4695A033124318B
:1056300005214529EC5A728C31843184518431849E
:105640005184318452845284728CB494B38CB38C60
:10565000B38CB38CB38CB38CB38CB38CB494D49420
:10566000D494D494F394F494D494F48CF494F49C5B
:10567000F49CB4AC0A6A2871C971686949716A629C
:105680008E838E7333AC0A7288698C72939C6E73AE
:10569000B29455ADF4A4118C55A5D4A48B6A0B8299
:1056A00072A495AD75A555ADB39CCC6A35A575AD05
:1056B00075AD15BDD1A3EA790C63F4ACD4A42E7BEF
:1056C00034A555AD119C8D7393ACAA79A8692D8B27
:1056D000B2A44E83A9698971277107792879287145
:1056E0004E7396B555A5749D549D55A555A555A5C4
:1056F00055A555A555A555A555A555A555A555A5DA
:1057000055A575A575A534A5D394F49CF394F3948D
:10571000D3941395F39CF39CD3A4695A2431443158
:10572000252146290C63728C318452845284528420
:105730005284528452843184528CB394B394D3945F
:10574000D394D38CD38CD494D38CD494D494D49435
:10575000D494D49CD394D394D39CF494F494F49C94
:105760001495B39C2A5A8869496A2A6AA961AA7958
:10577000A9696E93EB6A90930B720B625194AE73AE
:10578000D4A434ADB39C529456A5F18BCD72D39C66
:1057900095B554A574A535AD939CCC7235A575AD62
:1057A00076AD35ADB7BDF3A4ED72729415AD8F8BA8
:1057B000D29C75AD53A4AE7B72ACA9710C7BD2A404
:1057C0004E8C6A7969794871AA6A8C82886968699D
:1057D0008F7B76AD55A575A555A555AD56A555AD8F
:1057E00055A555A555A555A555A555A555A555A5E9
:1057F00055A555A555A534A5D394F394F394F394E6
:10580000F394F39CF29CD29CD3A449622439453191
:10581000262166292C6372845184518451845184D9
:105820005284728452843184728CB394B38CD38C3E
:10583000D38CD394D494D494D494D494D494D49432
:10584000D494D494F494D494D494F494F494149577
:10585000F49CF4A4495A2A62108C729C0E7B486115
:10586000A969EA693194B4BC2B720A6A118C8E7BE7
:10587000729C15AD7394729455A5B294D3A455AD92
:1058800035AD35AD55A555A5B39CAC7214A576AD17
:1058900076AD75AD55AD55ADF4ACF49C55A5D08B3A
:1058A000108CB7C5F29BAF8B11A4A971CF8B109C44
:1058B000CB7AAA8168698C7AD3A4F4AC8F8B2761E8
:1058C0006E6B76AD55AD75A575A575A555A555A598
:1058D00055A555A555A555A575A555A555A555A5D8
:1058E00055A555A555A554A5D394F39CD39CF394E5
:1058F000F494F394F39CF39CF3A44962043144318F
:10590000262165292C6372845184518471847184A9
:105910005184718472845184728CB394B38CD38C0F
:10592000D48CD494D48CD38CD494D494D494D49450
:10593000D494D494F494D494D494F4941495149565
:10594000D49CB3A4AB626E73349D14A5D49C6D8AB1
:105950008961EB710D6B4F8B0E8BC96131948F7B1D
:105960006E7BD5A41184F4A4339D54A554A535AD04
:1059700035AD36AD35AD55A5B2948C72F4A455ADA8
:1059800056A576A576AD76AD35AD55AD35A5D4A485
:10599000CC6A4E836B6A0E836F936861CF83D09B12
:1059A000B1ABE770C96932A454AD75A5B29CA971B9
:1059B0008E7396AD35AD75A575A575A575A555A55F
:1059C00055A575A555A555A575A555A555A555A5C7
:1059D00055A555A555A555A5F39CF39CD39CF49CC2
:1059E0001495F394F39CD39CD3A42962C330032968
:1059F000252165292B63928C718471847184718453
:105A00007284528472845184728CB394B38CD38C1C
:105A1000D494D494D494D394D494D494D494F49427
:105A2000F494D494F494F494D494F494F494149555
:105A3000149DF4A4ED6A8F7B55A5F39C14A52FA3A8
:105A4000696989710A62709B2F93AA698D7A0F8B9D
:105A5000CA61CB62B39C35AD76AD55A556AD57A5A1
:105A600056A556A515A575AD718C6B5AB28C96AD21
:105A700055AD56AD76AD76AD96B596AD96AD36B51F
:105A8000F2AB4861AA81AA79AA792871B093F2ABE6
:105A9000EA71697968692F8B95AD55AD929C8861E3
:105AA000CF7375A535AD55A555A575A556A555A5B5
:105AB00055A555A575A555A575A555A555A555A5D6
:105AC00055A555A555A555ADF39CF49CF49CF49CA7
:105AD00014951395F394D39CD3A4295AC428E5288C
